:020000040800F2
:1000000000500020DD050008950500089705000850
:10001000990500089B0500089D05000800000000E8
:100020000000000000000000000000009F05000824
:10003000A105000800000000A3050008A5050008B0
:1000400025060008250600082506000825060008E4
:1000500025060008250600082506000825060008D4
:1000600025060008250600082506000825060008C4
:1000700025060008250600082506000825060008B4
:1000800025060008250600082506000825060008A4
:100090002506000825060008250600082506000894
:1000A0002506000825060008250600082506000884
:1000B000AD050008C905000825060008250600084A
:1000C0002506000825060008250600082506000864
:1000D0002506000825060008250600082506000854
:1000E0002506000825060008250600080000000077
:1000F0000000000000000000000000000000000000
:0C01000000000000000000005FF808F1A3
:10010C0010B5054C237833B9044B13B10448AFF345
:10011C0000800123237010BD10000020000000009F
:10012C00481C000808B5034B1BB103490348AFF347
:10013C00008008BD0000000014000020481C0008CE
:10014C002DE9F04188B0002404940594069407949A
:10015C001F4B9A6942F020029A619A6902F02002C0
:10016C000192019A9A6942F004029A619A6902F02A
:10017C0004020292029A9A6942F008029A619B69FF
:10018C0003F008030393039BDFF8488022463621D3
:10019C00404600F013FC104D22460321284600F087
:1001AC000DFC362304930127059706940226079627
:1001BC0004A9404600F0F4FA03230493059706942F
:1001CC00079604A9284600F0EBFA08B0BDE8F081C8
:1001DC000010024000080140000C014072B6FEE71E
:1001EC0000B58FB000230A930B930C930D930893D7
:1001FC000993019302930393049305930693079336
:10020C001F484FF080420260436083604FF6FF72DC
:10021C00C2600361836101F0E9F830BB4FF4805395
:10022C000A930AA9164801F0E1F900BB144801F041
:10023C0009F9F0B900230893099308A9104801F0B3
:10024C0013FBC0B9602301934FF47A73029300221D
:10025C000392059201A90A4801F04EF968B90848C1
:10026C0000F016F90FB05DF804FBFFF7B7FFFFF7CE
:10027C00B5FFFFF7B3FFFFF7B1FFFFF7AFFF00BF0D
:10028C00BC00002008B50A480A4B03604FF49643A3
:10029C00436000238360C36003610C22426183616D
:1002AC00C36101F063FB00B908BDFFF797FF00BF06
:1002BC002C0000200038014000B58FB000230A93B9
:1002CC000B930C930D93089309930193029303934F
:1002DC0004930593069307931D481E4A02604360DE
:1002EC0083604FF6FF72C2600361836101F07EF898
:1002FC0020BB4FF480530A930AA9154801F076F9F4
:10030C00F0B9134801F09EF8E0B900230893099363
:10031C0008A90F4801F0A8FAB0B960230193002294
:10032C0002920392059201A9094801F0E5F868B917
:10033C00074800F0ADF80FB05DF804FBFFF74EFF77
:10034C00FFF74CFFFFF74AFFFFF748FFFFF746FFA9
:10035C00740000200004004000B591B02822002158
:10036C0006A801F0D9FB0023019302930393049395
:10037C000593012206924FF4803307930A920222CE
:10038C000D920E934FF4C0130F9306A800F032FB9E
:10039C0080B90F23019302210291002303934FF4A0
:1003AC0080620492059301A800F056FD20B911B0AB
:1003BC005DF804FBFFF712FFFFF710FF08B500F024
:1003CC0053F9FFF7C9FFFFF7BBFEFFF709FFFFF774
:1003DC0059FFFFF771FF01F04BFBFEE782B00E4BAC
:1003EC009A6942F001029A619A6902F00102009244
:1003FC00009ADA6942F08052DA61DB6903F08053CB
:10040C000193019B054A536823F0E06343F00073AA
:10041C00536002B0704700BF001002400000014062
:10042C0000B583B00368B3F1804F05D0164A9342F0
:10043C0016D003B05DF804FB03F50433DA6942F01F
:10044C000102DA61DB6903F001030093009B0022D7
:10045C0011461C2000F072F91C2000F07FF9E8E72F
:10046C000A4BDA6942F00202DA61DB6903F002033B
:10047C000193019B002211461D2000F05FF91D2005
:10048C0000F06CF9D5E700BF0004004000100240FA
:10049C0000B587B00023029303930493059303687C
:1004AC00B3F1804F05D0174A934217D007B05DF8CF
:1004BC0004FB03F504339A6942F004029A619B69C8
:1004CC0003F004030093009B012302930223039384
:1004DC00059302A90C4800F063F9E7E70B4B9A6906
:1004EC0042F004029A619B6903F004030193019B9F
:1004FC004023029302230393059302A9024800F0C0
:10050C004FF9D3E7000400400008014000100240FE
:10051C0010B586B0002302930393049305930268ED
:10052C00174B9A4201D006B010BD03F558439A6997
:10053C0042F480429A619A6902F480420092009AD5
:10054C009A6942F004029A619B6903F004030193D7
:10055C00019B4FF40073029302230393032305932F
:10056C00084C02A9204600F01BF94FF4806302935B
:10057C0000230393049302A9204600F011F9D2E75B
:10058C000038014000080140FEE7FEE7FEE7FEE709
:10059C00FEE770477047704708B500F077F808BD64
:1005AC0008B5044B186901F059FA034800F02DFE08
:1005BC0008BD00BF58010020BC00002008B502484F
:1005CC0000F023FE08BD00BF74000020704700003F
:1005DC00FFF7FCFF0B480C490C4A002302E0D458EF
:1005EC00C4500433C4188C42F9D3094A094C002373
:1005FC0001E013600432A242FBD301F095FAFFF73D
:10060C00DDFE70470000002010000020981C000840
:10061C001000002010030020FEE7000010B5044677
:10062C000E4B1A784FF47A73B3FBF2F30C4A106842
:10063C00B0FBF3F000F0A0F868B90F2C01D9012041
:10064C000AE0002221464FF0FF3000F077F8054B0E
:10065C001C60002000E0012010BD00BF0400002041
:10066C00000000200800002008B5074A136843F07A
:10067C0010031360032000F04FF80F20FFF7CEFF9C
:10068C00FFF7ACFE002008BD00200240034A1168B1
:10069C00034B1B780B441360704700BF0401002010
:1006AC0004000020014B1868704700BF04010020B3
:1006BC00002808DB0901C9B200F1604000F5614077
:1006CC0080F80013704700F00F000901C9B2014B0C
:1006DC001954704714ED00E000B500F00700C0F1AC
:1006EC00070CBCF1040F28BF4FF0040C031D062BA4
:1006FC000FD9C31E4FF0FF3E0EFA0CF021EA000199
:10070C0099400EFA03FE22EA0E0241EA02005DF85D
:10071C0004FB0023EEE70000074AD36823F4E063F0
:10072C001B041B0C000200F4E060034343F0BF63A6
:10073C0043F40033D360704700ED00E010B504467D
:10074C00054BD868C0F30220FFF7C6FF01462046D0
:10075C00FFF7AEFF10BD00BF00ED00E0002807DB87
:10076C0000F01F02400901239340024A42F8203056
:10077C00704700BF00E100E00138B0F1807F0BD280
:10078C004FF0E0235861054AF02182F82310002035
:10079C00986107221A6170470120704700ED00E054
:1007AC0070B582B00024A446A2E07E4DAB4210D0BE
:1007BC0007D97D4DAB420CD005F58035AB4208D046
:1007CC0013E0A5F58015AB4203D005F57025AB42BF
:1007DC0007D18B68002B55D0012B4ED042610824D9
:1007EC0003E0A5F58015AB42F3D0BEF1FF0F4BD85B
:1007FC0006464FEA8C0233680F25954023EA050321
:10080C0004FA02F2134333604B6813F0805F6DD02F
:10081C00664B9A6942F001029A619B6903F00103ED
:10082C000193019B4FEA9C02951C614B53F8256088
:10083C000CF00305AD000F23AB4026EA03065D4B1D
:10084C00984228D003F58063984200F08D8003F520
:10085C008063984200F08A8003F58063984218D038
:10086C00042319E0CC68C0E7CC680434BDE7CC683D
:10087C000834BAE7CC680C34B7E702610824B4E753
:10088C000024B2E70424B0E7061DACF10802920084
:10089C00B1E7032300E00023AB4033430232444D65
:1008AC0045F822304B6813F4801F61D0424A93689C
:1008BC0043EA0E0393604B6813F4001F5ED03E4A6C
:1008CC00D36843EA0E03D3604B6813F4003F5BD04C
:1008DC00394A536843EA0E0353604B6813F4803F64
:1008EC0058D0354A136843EA0E0313600CF1010C1F
:1008FC000B6833FA0CF253D0012202FA0CF203EA21
:10090C00020E32EA0303F1D14B68122B3FF64DAFC6
:10091C00122B3FF66AAF01A555F823F0DF0700084C
:10092C00710800087B0800088D080008F70700080C
:10093C00F7070008F7070008F7070008F707000893
:10094C00F7070008F7070008F7070008F707000883
:10095C00F7070008F7070008F7070008F707000873
:10096C007508000881080008012395E7022393E726
:10097C00114A936823EA0E0393609CE70E4AD368EE
:10098C0023EA0E03D3609FE70B4A536823EA0E0356
:10099C005360A2E7084A136823EA0E031360A5E725
:1009AC0002B070BD00002210000031100010024097
:1009BC000000014000080140000401400AB101613F
:1009CC00704709040161704782B0084B1B68084AE4
:1009DC00A2FB03235B0A00FB03F3019300BF019B03
:1009EC005A1E0192002BF9D102B070470000002072
:1009FC00D34D6210002800F0F18170B582B004462E
:100A0C00036813F0010F2CD0994B5B6803F00C03B7
:100A1C00042B1DD0964B5B6803F00C03082B12D0F3
:100A2C006368B3F5803F41D0002B55D103F180436F
:100A3C0003F504331A6822F480321A601A6822F41F
:100A4C0080221A6037E08A4B5B6813F4803FE7D052
:100A5C00874B1B6813F4003F03D06368002B00F036
:100A6C00BF81236813F0020F75D0814B5B6813F0C4
:100A7C000C0F5FD07E4B5B6803F00C03082B54D03B
:100A8C002369002B00F08A807A4B01221A60FFF751
:100A9C0009FE0546764B1B6813F0020F75D1FFF764
:100AAC0001FE401B0228F5D903209EE1704A136811
:100ABC0043F480331360636843B3FFF7F3FD0546DB
:100ACC006B4B1B6813F4003FCBD1FFF7EBFD401BC6
:100ADC006428F5D9032088E1B3F5A02F09D0644B25
:100AEC001A6822F480321A601A6822F480221A6082
:100AFC00E1E703F18043A3F53C331A6842F480220A
:100B0C001A601A6842F480321A60D4E7FFF7CAFD03
:100B1C000546574B1B6813F4003FA2D0FFF7C2FDEC
:100B2C00401B6428F5D903205FE1514B5B6813F43B
:100B3C00803FA5D14E4B1B6813F0020F03D02369E5
:100B4C00012B40F04F814A4A136823F0F803616986
:100B5C0043EAC1031360236813F0080F33D0A36971
:100B6C00002B5CD0434B0122C3F88024FFF79AFD85
:100B7C0005463F4B5B6A13F0020F21D1FFF792FD44
:100B8C00401B0228F5D903202FE1394A136823F0C2
:100B9C00F803616943EAC1031360DCE7354B0022BB
:100BAC001A60FFF77FFD0546314B1B6813F0020FEF
:100BBC00D1D0FFF777FD401B0228F5D9032014E1B3
:100BCC000120FFF701FF236813F0040F00F096805B
:100BDC00274BDB6913F0805F34D1254BDA6942F087
:100BEC008052DA61DB6903F080530193019B01258C
:100BFC00214B1B6813F4807F26D0E368012B3DD07A
:100C0C00002B53D103F1804303F504331A6A22F00D
:100C1C0001021A621A6A22F004021A6233E0154BBE
:100C2C000022C3F88024FFF73DFD0546104B5B6A9C
:100C3C0013F0020FC7D0FFF735FD401B0228F5D982
:100C4C000320D2E00025D3E70B4A136843F48073EA
:100C5C001360FFF727FD0646074B1B6813F4807FD4
:100C6C00CBD1FFF71FFD801B6428F5D90320BCE016
:100C7C000010024000004242007000405F4A136ABC
:100C8C0043F001031362E36833B3FFF70BFD064631
:100C9C005A4B1B6A13F0020F2FD1FFF703FD801B79
:100CAC0041F288339842F3D903209EE0052B09D0FA
:100CBC00524B1A6A22F001021A621A6A22F00402DA
:100CCC001A62E0E74D4B1A6A42F004021A621A6A81
:100CDC0042F001021A62D6E7FFF7E4FC0646474BE6
:100CEC001B6A13F0020F08D0FFF7DCFC801B41F2EB
:100CFC0088339842F3D9032077E0E5B9E369002BF8
:100D0C0072D03E4A526802F00C02082A56D0022BCE
:100D1C0017D03B4B00221A66FFF7C4FC0446374B36
:100D2C001B6813F0007F47D0FFF7BCFC001B0228A8
:100D3C00F5D9032059E0314AD36923F08053D361AC
:100D4C00DCE72F4B00221A66FFF7ACFC05462B4B59
:100D5C001B6813F0007F06D0FFF7A4FC401B022891
:100D6C00F5D9032041E0236AB3F5803F1AD023491B
:100D7C004B6823F47413226A606A024313434B607A
:100D8C001F4B01221A66FFF78DFC04461B4B1B6898
:100D9C0013F0007F0ED1FFF785FC001B0228F5D95C
:100DAC00032022E0154A536823F40033A1680B4357
:100DBC005360DCE7002018E0002016E0012B16D071
:100DCC000E4B5B6803F48031226A914211D103F41B
:100DDC007013626A93420ED1002006E00120704726
:100DEC00012002E0012000E0002002B070BD0120D3
:100DFC00FBE70120F9E70120F7E700BF00100240F4
:100E0C00000042420F4B5B6803F00C02082A01D031
:100E1C000D487047C3F383420C49885C13F4803F40
:100E2C000BD0084B5B68C3F34043094AD35C064ABA
:100E3C0002FB00F0B0FBF3F07047064B03FB00F035
:100E4C00704700BF0010024000127A007C1C0008A2
:100E5C00781C000800093D00002800F0A08070B547
:100E6C000D460446524B1B6803F007038B420BD212
:100E7C004F4A136823F007030B431360136803F006
:100E8C0007038B4240F08D80236813F0020F17D0BC
:100E9C0013F0040F04D0474A536843F4E0635360E3
:100EAC00236813F0080F04D0424A536843F460538C
:100EBC005360404A536823F0F003A1680B4353601E
:100ECC00236813F0010F31D06368012B20D0022B63
:100EDC0025D0384A126812F0020F64D035494A689E
:100EEC0022F0030213434B60FFF7DCFB0646314B49
:100EFC005B6803F00C036268B3EB820F16D0FFF74C
:100F0C00D1FB801B41F288339842F0D9032045E095
:100F1C00284A126812F4003FE0D101203EE0254A35
:100F2C00126812F0007FD9D1012037E0204B1B68EA
:100F3C0003F00703AB420AD91D4A136823F00703D9
:100F4C002B431360136803F00703AB422DD12368C6
:100F5C0013F0040F06D0174A536823F4E063E168DA
:100F6C000B435360236813F0080F07D0114A5368E2
:100F7C0023F46053216943EAC1035360FFF742FF36
:100F8C000C4B5B68C3F303130B4AD35CD8400B4B7D
:100F9C0018600B4B1868FFF741FB002070BD012057
:100FAC0070470120FAE70120F8E70120F6E700BFBF
:100FBC000020024000100240681C000800000020C5
:100FCC0008000020014B1868704700BF000000208B
:100FDC0008B5FFF7F7FF044B5B68C3F30223034A22
:100FEC00D35CD84008BD00BF00100240601C000854
:100FFC0008B5FFF7E7FF044B5B68C3F3C223034A52
:10100C00D35CD84008BD00BF00100240601C000833
:10101C0030B4026A036A23F00103036245688369F2
:10102C0023F073030C681C4322F002028B681343F9
:10103C000B4A904206D0456084614A684263036261
:10104C0030BC704723F00803CA681A4322F004032B
:10105C0025F440754A692A438D691543EBE700BFB7
:10106C00002C014030B4036A026A22F480720262DE
:10107C004468C26922F073020D68154323F40073AF
:10108C008A6843EA02230D4A904206D04460C56147
:10109C004A68C263036230BC704723F40063CA68B9
:1010AC0043EA022323F4806324F440544A6944EA5B
:1010BC0002148A6944EA0214E8E700BF002C0140DC
:1010CC0030B4036A026A22F4805202624468C26934
:1010DC0022F4E6420D6842EA052223F400538D689F
:1010EC0043EA0533074DA84206D04460C2614A6802
:1010FC000264036230BC704724F480444D6944EAB6
:10110C008514F2E7002C014010B4036A046A24F041
:10111C0001040462846924F0F00C4CEA021223F0FE
:10112C000A030B438261036210BC704710B4036A5C
:10113C00046A24F010040462846924F4704C4CEAB0
:10114C00023223F0A00343EA01138261036210BC54
:10115C007047836823F070030B4343F007038360ED
:10116C007047000090F83D30DBB2012B27D10223F1
:10117C0080F83D300268D36843F00103D360036804
:10118C00114A934210D0B3F1804F0DD0A2F5943296
:10119C00934209D002F58062934205D01A6842F05E
:1011AC0001021A60002070479A6802F00702062AB2
:1011BC0007D01A6842F001021A6000207047012023
:1011CC0070470020704700BF002C01400268D368B4
:1011DC0023F00103D3600368196A41F21112114222
:1011EC0008D1196A40F24442114203D11A6822F024
:1011FC0001021A60012380F83D30002070477047CF
:10120C007047704770477047704770B50446036865
:10121C00DE681D6915F0020F10D016F0020F0DD00C
:10122C006FF002021A610123037703689B6913F0C4
:10123C00030F5ED0FFF7E6FF0023237715F0040FB2
:10124C0012D016F0040F0FD023686FF004021A614D
:10125C000223237723689B6913F4407F4FD02046E9
:10126C00FFF7D0FF0023237715F0080F12D016F0EC
:10127C00080F0FD023686FF008021A61042323773C
:10128C002368DB6913F0030F40D02046FFF7BAFF49
:10129C000023237715F0100F12D016F0100F0FD07B
:1012AC0023686FF010021A61082323772368DB6927
:1012BC0013F4407F31D02046FFF7A4FF002323779F
:1012CC0015F0010F02D016F0010F2DD115F0800F83
:1012DC0002D016F0800F2FD115F0400F02D016F06F
:1012EC00400F31D115F0200F02D016F0200F33D162
:1012FC0070BDFFF786FF2046FFF785FF9CE7204671
:10130C00FFF77FFF2046FFF77EFFABE72046FFF796
:10131C0078FF2046FFF777FFBAE72046FFF771FF0B
:10132C002046FFF770FFC9E723686FF001021A61CE
:10133C002046FFF765FFC9E723686FF080021A614A
:10134C00204600F0C8FAC7E723686FF040021A6124
:10135C002046FFF759FFC5E723686FF020021A619A
:10136C00204600F0B7FAC3E703681F4A90420AD040
:10137C00B0F1804F07D0A2F59432904203D002F521
:10138C008062904203D123F070034A681343164ADB
:10139C0090420AD0B0F1804F07D0A2F5943290421F
:1013AC0003D002F58062904203D123F44073CA68E3
:1013BC00134323F080034A69134303608B68C362B1
:1013CC000B688362084B98420AD00123436103697E
:1013DC0013F0010F03D0036923F00103036170477D
:1013EC000B690363F1E700BF002C014040B310B55B
:1013FC00044690F83D30F3B1022384F83D30214689
:10140C0051F8040BFFF7B0FF012384F8463084F841
:10141C003E3084F83F3084F8403084F8413084F812
:10142C00423084F8433084F8443084F8453084F8F2
:10143C003D30002010BD80F83C30FEF7F1FFDBE7BB
:10144C000120704740B310B5044690F83D30F3B11D
:10145C00022384F83D30214651F8040BFFF784FF3A
:10146C00012384F8463084F83E3084F83F3084F809
:10147C00403084F8413084F8423084F8433084F8AA
:10148C00443084F8453084F83D30002010BD80F89D
:10149C003C30FFF7B4FEDBE70120704730B4036A41
:1014AC00026A22F0100202624468826922F4E64267
:1014BC000D6842EA052223F020038D6843EA0513E8
:1014CC000C4DA84206D0446082614A688263036274
:1014DC0030BC704723F08003CD6843EA051323F03A
:1014EC00400324F440644D6944EA85048D6944EA60
:1014FC008504E8E7002C014038B590F83C30012B0E
:10150C0066D004460D46012380F83C300C2A5AD88C
:10151C00DFE802F0075959591B5959593059595993
:10152C0044000068FFF774FD2268936943F00803D8
:10153C0093612268936923F0040393612268936991
:10154C0029690B43936100203EE00068FFF7A6FF7A
:10155C002268936943F4006393612268936923F4CE
:10156C008063936122689369296943EA012393613B
:10157C00002029E00068FFF775FD2268D36943F06D
:10158C000803D3612268D36923F00403D361226872
:10159C00D36929690B43D361002015E00068FFF77C
:1015AC008FFD2268D36943F40063D3612268D36949
:1015BC0023F48063D3612268D369296943EA012348
:1015CC00D361002000E00120002384F83C3038BDBA
:1015DC000220FCE710B4846824F47F4C42EA032216
:1015EC000A4342EA0C02826010BC704790F83C300F
:1015FC00012B78D010B50446012380F83C3002232F
:10160C0080F83D300268936823F47F4323F077031E
:10161C0093600B68602B4CD029D8402B54D00CD93C
:10162C00502B22D1CA6849680068FFF76DFD502124
:10163C002068FFF78EFD002005E0202B0DD009D986
:10164C00302B0AD00120012384F83D30002384F88C
:10165C003C3010BD0BB1102B05D119462068FFF79B
:10166C0078FD0020EFE70120EDE70120EBE7B3F573
:10167C00805F34D0B3F5005F0CD1CB684A688968C1
:10168C000068FFF7A7FF2268936843F480439360D8
:10169C000020D8E7702B24D1CB684A688968006891
:1016AC00FFF798FF2268936843F07703936000205C
:1016BC00C9E7CA6849680068FFF738FD60212068EF
:1016CC00FFF747FD0020BEE7CA6849680068FFF7CE
:1016DC001BFD40212068FFF73CFD0020B3E70020F4
:1016EC00B1E70120AFE70220704701F01F014FF076
:1016FC00010C0CFA01FC036A23EA0C030362036A73
:10170C008A4013430362704710B50446084651BB28
:10171C0094F83E30DBB2013B18BF0123002B5BD1A8
:10172C00002839D1022384F83E300122014620687A
:10173C00FFF7DBFF23682A4A93423DD02368284AEF
:10174C0093423ED0B3F1804F3BD0A2F594329342FA
:10175C0037D002F58062934233D01A6842F001020E
:10176C001A60002039E0042908D008290DD094F81B
:10177C004130DBB2013B18BF0123CFE794F83F3077
:10178C00DBB2013B18BF0123C8E794F84030DBB251
:10179C00013B18BF0123C1E7042805D0082807D056
:1017AC00022384F84130C0E7022384F83F30BCE7C1
:1017BC00022384F84030B8E75A6C42F400425A6471
:1017CC00BCE79A6802F00702062A07D01A6842F0B2
:1017DC0001021A60002000E0012010BD0020FCE78F
:1017EC00002C014038B504460D4600220068FFF776
:1017FC007CFF23681B4A934214D02368196A41F278
:10180C001112114208D1196A40F24442114203D11B
:10181C001A6822F001021A609DB9012384F83E3047
:10182C00002038BD196A41F211121142E5D1196A32
:10183C0040F244421142E0D15A6C22F400425A6404
:10184C00DBE7042D05D0082D07D0012384F84130A7
:10185C00E6E7012384F83F30E2E7012384F84030C7
:10186C00DEE700BF002C014090F83C20012A2CD070
:10187C0010B40346012280F83C20022280F83D205F
:10188C0002685068946820F0700C086840EA0C00FC
:10189C0050601A680E4882420AD0B2F1804F07D0CD
:1018AC00A0F59430824203D000F58060824204D1CE
:1018BC0024F08004496821439160012283F83D2083
:1018CC00002083F83C0010BC70470220704700BF1A
:1018DC00002C01407047704710B50446026813692C
:1018EC0023F44053C1680B431361836802691343AB
:1018FC0042691A430168CB6823F4B05323F00C03FC
:10190C001343CB600268536923F4407381690B4322
:10191C0053610268134B9A4220D0FFF759FB0246E1
:10192C0002EB820202EB820263689B00B2FBF3F2D1
:10193C000D48A0FB02314909642303FB11231B0151
:10194C003233A0FB03035B0903F0F00202EB01123C
:10195C0003F00F03216813448B6010BDFFF748FBA5
:10196C000246DDE7003801401F85EB5160B310B52E
:10197C00044690F8413013B3242384F84130226894
:10198C00D36823F40053D3602046FFF7A5FF2268E9
:10199C00136923F4904313612268536923F02A03DB
:1019AC0053612268D36843F40053D3600020606411
:1019BC00202384F8413084F84230606310BD80F8F5
:1019CC004030FEF7A5FDD7E70120704708B5CAB235
:1019DC0081880068FEF7F2FF08BD000070B5044670
:1019EC001646C160642A1FD9402523681B68DD6236
:1019FC002368DD60636860221A6063686A085A6055
:101A0C0062680023936062681361227A61682068BF
:101A1C00FFF772FD06FB05F5054BB3FBF5F32268EA
:101A2C0012689BB2936270BD4FF47A45DDE700BF3C
:101A3C000090D00310B504460068FFF793FB217AA1
:101A4C002068FFF761FE10BD10B504460068FFF773
:101A5C00BDFB217A2068FFF7C5FE10BD08B5C36831
:101A6C0013B1013BC36008BDFFF7EEFFFBE70000BD
:101A7C0080B51D481D4A0260022383801C4E3260D3
:101A8C000422B2801B491C4C0C6001258D801B4A22
:101A9C00146093801A4B1B4C1C601B4C5C60002424
:101AAC001C721A4F1A4C3C601A4C20606660A16084
:101ABC00E260236167612946FFF788FF2946606869
:101ACC00FFF784FF2946A068FFF780FF2946E068EE
:101ADC00FFF77CFF052264212069FFF77FFF206957
:101AEC00FFF7A8FFFEE700BF5001002000080140EF
:101AFC004801002040010020000C0140380100206A
:101B0C0028010020BC0000200C010020080100204E
:101B1C002C0000205801002003460244934200D1BF
:101B2C00704703F8011BF9E770B500260C4D0D4CFE
:101B3C00641BA410A64209D100F080F800260A4DBF
:101B4C000A4C641BA410A64205D170BD55F8043B89
:101B5C0098470136EEE755F8043B98470136F2E713
:101B6C008C1C00088C1C00088C1C0008941C0008A1
:101B7C0070477047024B13B1024800F005B870472C
:101B8C0000000000A11B0008002301461A4618465D
:101B9C0000F014B838B5074D074C641BA4101CB9E1
:101BAC00BDE8384000F050B8013C55F82430984757
:101BBC00F5E700BF941C0008981C00082DE9F047BD
:101BCC00DFF86CA00646DAF8000098460F469146FE
:101BDC00FFF7CEFF174B1C680CB9174C1C606568DF
:101BEC00DAF800001F2D05DDFFF7C3FF4FF0FF30C3
:101BFC00BDE8F0879EB1012204EB8501C1F8889005
:101C0C00D4F88831AA401343C4F88831022EC1F8A5
:101C1C00088102BFD4F88C311343C4F88C316B1C8F
:101C2C000235636044F82570FFF7A3FF0020DFE75F
:101C3C000C0000207C01002080010020F8B500BFC2
:101C4C00F8BC08BC9E467047F8B500BFF8BC08BC91
:041C5C009E467047E9
:101C6000000000000102030400000000000000006A
:101C7000010203040607080901020000020304052B
:0C1C8000060708090A0B0C0D0E0F1010CF
:081C8C00811B00083101000872
:041C94000D01000836
:101C980000127A0001000000100000007801002006
:04000005080005DD0D
:00000001FF
